:100000000C94E50A0C94120B0C94120B0C94120B2A
:100010000C94120B0C94120B0C94120B0C94120BEC
:100020000C94120B0C94120B0C94120B0C94120BDC
:100030000C94120B0C94120B0C94120B0C94120BCC
:100040000C94120B0C946E590C94120B0C94120B12
:100050000C94120B0C94120B0C94DA610C94866DB8
:100060000C94120B0C94FF1E0C94120B0C94120B9C
:100070000C94120B0C94120B0C94120B0C94120B8C
:100080000C94120B0C94120B0C94120B0C94120B7C
:100090000C94120B0C94120B0C94120B0C94F16B2D
:1000A0000C94120B0C94120B0C94120B0C94120B5C
:1000B0000C94120B0C94120B0C94120B0C94120B4C
:1000C0000C94120B0C94120B0C94120B0C94120B3C
:1000D0000C94120B0C94120B0C94120B0C94120B2C
:1000E0000C94120B084AD73B3BCE016E84BCBFFD7B
:1000F000C12F3D6C74319ABD56833DDA3D00C77FF8
:1001000011BED9E4BB4C3E916BAAAABE0000008090
:100110003F05A84CCDB2D44EB93836A9020C50B91F
:10012000918688083CA6AAAA2ABE000000803F4803
:10013000617264636F6465642044656661756C74A4
:100140002053657474696E6773204C6F61646564D5
:100150000053746F7265642073657474696E67739D
:100160002072657472696576656400204500205AC6
:100170000020590020204D3937205800496E7665FF
:100180007274204469723A00205A002059002020DD
:100190004D3938205800456E6473746F7073204970
:1001A0006E76657274696E673A00205A00205900B5
:1001B00020204D39362058004D617820506F733A19
:1001C00000205A0020590020204D39352058004D7C
:1001D000696E20506F733A002044002049002020AF
:1001E000204D3330312050005049442073657474E1
:1001F000696E67733A00205A0020590020204D3262
:100200003036205800486F6D65206F6666736574E0
:1002100020286D6D293A00204500205A0020580002
:1002200020420020540020204D3230352053004120
:100230006476616E636564207661726961626C6583
:10024000733A20533D4D696E206665656472617432
:100250006520286D6D2F73292C20543D4D696E202B
:1002600074726176656C2066656564726174652080
:10027000286D6D2F73292C20423D6D696E696D7557
:100280006D207365676D656E742074696D652028D7
:100290006D73292C20583D6D6178696D756D2058FE
:1002A00059206A65726B20286D6D2F73292C2020D0
:1002B0005A3D6D6178696D756D205A206A65726B63
:1002C00020286D6D2F73292C2020453D6D617869A4
:1002D0006D756D2045206A65726B20286D6D2F73DA
:1002E000290020540020204D323034205300416337
:1002F00063656C65726174696F6E3A20533D61632A
:1003000063656C65726174696F6E2C20543D726513
:10031000747261637420616363656C657261746992
:100320006F6E00204500205A0020590020204D32D9
:1003300030312058004D6178696D756D20416363DF
:10034000656C65726174696F6E20286D6D2F7332F4
:10035000293A00204500205A0020590020204D3223
:1003600030332058004D6178696D756D2066656584
:1003700064726174657320286D6D2F73293A0020B3
:100380004500205A0020590020204D3932205800C5
:1003900053746570732070657220756E69743A00CD
:1003A00053657474696E67732053746F726564006B
:1003B0004572726F723A006563686F3A00507269F5
:1003C0006E7465722073746F7070656420647565F7
:1003D00020746F206572726F72732E2046697820C8
:1003E000746865206572726F7220616E6420757327
:1003F00065204D39393920746F20726573746172CC
:10040000742E202854656D70657261747572652054
:1004100069732072657365742E2053657420697446
:100420002061667465722072657374617274696E9E
:100430006729005072696E7465722068616C74651A
:10044000642E206B696C6C28292063616C6C656478
:1004500021006F6B00526573656E643A20002200C4
:10046000556E6B6E6F776E20636F6D6D616E643A63
:100470002022005A204F6666736574203A20007A65
:100480005F6D61783A20007A5F6D696E3A20005A9C
:10049000204F6666736574005A204F6666736574F4
:1004A000206F6B004D3235333A31004D3235333ADF
:1004B0003000473120463330303020452573004727
:1004C000302046333030205A2573004D31303920EA
:1004D000532564007A5F6D696E3A2000795F6D691B
:1004E0006E3A2000785F6D696E3A2000205A3A001B
:1004F00020593A0020436F756E7420583A2000202E
:10050000453A00205A3A0020593A00583A004649E4
:10051000524D574152455F4E414D453A4D61726CC7
:10052000696E2056312E302E323B20537072696E28
:100530007465722F6772626C206D617368757020CC
:10054000666F722067656E36204649524D5741529C
:10055000455F55524C3A68747470733A2F2F67692F
:10056000746875622E636F6D2F4D61726C696E4693
:1005700069726D776172652F4D61726C696E205082
:10058000524F544F434F4C5F56455253494F4E3A8A
:10059000312E30204D414348494E455F5459504516
:1005A0003A4D656E64656C20455854525544455229
:1005B0005F434F554E543A3120555549443A3030F7
:1005C0003030303030302D303030302D3030303031
:1005D0002D303030302D3030303030303030303021
:1005E00030300A0020423A0020453A00543A0020B8
:1005F000573A0020453A00543A002042403A002041
:10060000403A00202F003A00205400202F002042C2
:100610003A00202F006F6B20543A002569206D6945
:100620006E2C2025692073656300FFFFFF0000A08A
:10063000400000A04000000040000000000000005A
:1006400000000000005072696E7465722073746F50
:10065000707065642064756520746F206572726FB8
:1006600072732E2046697820746865206572726FF7
:100670007220616E6420757365204D39393920749C
:100680006F20726573746172742E202854656D70CA
:100690006572617475726520697320726573657423
:1006A0002E2053657420697420616674657220720F
:1006B000657374617274696E6729004E6F204C69AE
:1006C0006E65204E756D626572207769746820636F
:1006D0006865636B73756D2C204C617374204C6975
:1006E0006E653A20004E6F20436865636B73756DCD
:1006F0002077697468206C696E65206E756D62651F
:10070000722C204C617374204C696E653A20006332
:100710006865636B73756D206D69736D6174636873
:100720002C204C617374204C696E653A20004C6932
:100730006E65204E756D626572206973206E6F74F0
:10074000204C617374204C696E65204E756D626536
:10075000722B312C204C617374204C696E653A20E9
:10076000004D313130002020506C616E6E65724258
:10077000756666657242797465733A200020467228
:100780006565204D656D6F72793A20004F63742066
:100790003331203230313600436F6D70696C6564DF
:1007A0003A2000286E6F6E652C2064656661756C5A
:1007B0007420636F6E6669672900207C2041757420
:1007C000686F723A20004F63742033312032303129
:1007D000362031353A32373A333700204C61737462
:1007E00020557064617465643A2000313032004DE8
:1007F00061726C696E0020536F6674776172652058
:10080000526573657400205761746368646F672074
:100810005265736574002042726F776E206F757435
:10082000205265736574002045787465726E616C42
:1008300020526573657400506F7765725570007350
:1008400074617274002200656E717565696E67204F
:1008500022002200656E717565696E672022002096
:10086000746F6F206C6F6E67206578747275736932
:100870006F6E2070726576656E7465640020636FBC
:100880006C6420657874727573696F6E2070726520
:1008900076656E7465640045303A20005A3A20004F
:1008A000593A2000583A20004D53312C4D533220F4
:1008B00050696E730A0024F404D9201BC40C5C0E2A
:1008C0009804C4095F0265077101F405F900FB048F
:1008D000B30048048700C1036900580355000303AF
:1008E0004500BE023A008402310053022A00290268
:1008F000250004022000E4011C00C8011900AF011A
:1009000017009801140084011300710110006101A7
:10091000100051010E0043010D0036010B002B01A8
:100920000B0020010B00150109000C010900030157
:100930000800FB000800F3000800EB000700E400DB
:100940000600DE000600D8000600D2000600CC003B
:100950000500C7000500C2000500BD000400B90085
:100960000400B5000400B1000400AD000400A900BB
:100970000400A5000300A20003009F0004009B00E8
:10098000030098000300950002009300030090000C
:1009900003008D0002008B00030088000200860027
:1009A000020084000300810002007F0002007D003D
:1009B00002007B000200790002007700010076004F
:1009C00002007400020072000100710002006F005A
:1009D00002006D0001006C0002006A000100690065
:1009E000020067000100660001006500010064006C
:1009F00002006200010061000100600001005F0070
:100A000002005D0001005C0001005B0001005A0073
:100A10000100590001005800010057000100560074
:100A20000100550001005400010053000000530074
:100A300001005200010051000100500001004F0070
:100A400001004E0000004E0001004D0001004C006E
:100A500001004B0000004B0001004A00010049006A
:100A60000100480000004800010047000100460066
:100A70000000460001004500000045000100440060
:100A8000010043000000430001004200000042005A
:100A900001004100000041000100400001003F0052
:100AA00000003F0001003E0000003E0001003D004C
:100AB00000003D0001003C0000003C0000003C0044
:100AC00001003B0000003B0001003A0000003A003A
:100AD0000100390000003900010038000000380032
:100AE0000000380001003700000037000100360028
:100AF000000036000000360001003500000035001F
:100B00000000350001003400000034000000340013
:100B10000100330000003300000033000100320008
:100B200000003200000032000100310000003100FE
:100B300000003100010030000000300000003000F3
:100B400001002F0000002F0000002F0000002F00E8
:100B500001002E0000002E0000002E0001002D00DC
:100B600000002D0000002D0000002D0001002C00D1
:100B700000002C0000002C0000002C0001002B00C5
:100B800000002B0000002B0000002B0001002A00B9
:100B900000002A0000002A0000002A0001002900AD
:100BA00000002900000029000000290000002900A1
:100BB0000100280000002800000028000000280094
:100BC0000000280001002700000027000000270087
:100BD000000027000000270001002600000026007A
:100BE000000026000000260000002600010025006D
:100BF0000000250000002500000025000000250061
:100C00000000250001002400000024000000240052
:100C10000000240000002400010023000000230045
:100C20000000230000002300000023000000230038
:100C3000000023000100220000002200000022002A
:100C4000000022000000220000002200010021001C
:100C50000000210000002100000021000000210010
:100C60000000210000002100010020000000200001
:100C700000002000000020000000200000002000F4
:100C8000000020000000200001001F0000001F00E5
:100C900000001F0000001F0000001F0000001F00D8
:100CA00000001F0001001E0000001E0000001E00CA
:100CB00000001E00000024F4D43050C38E20C2A2D5
:100CC0004017828B7011127A910D816CD90AA8613C
:100CD000E108C7586607615143061E4B5D05C145D3
:100CE000A7041A411104093D9803713931034036B4
:100CF000DB0265339102D4305402802E1D02632C36
:100D0000EE01752AC501B028A001102781018F25A9
:100D100064012B244B01E0223401AC211F018D2002
:100D20000D01801FFC00841EED00971DDF00B81C24
:100D3000D200E61BC600201BBC00641AB200B21928
:100D4000A8000A19A0006A189900D117910040174D
:100D50008B00B516840031167E00B31579003A1564
:100D60007300C7146F0058146A00EE1366008813EE
:100D7000630025135E00C7125B006C12570015124A
:100D80005400C111510070114F0021114B00D610B9
:100D900049008D1047004610440002104200C00F69
:100DA0004000800F3E00420F3C00060F3B00CB0E80
:100DB0003800930E37005C0E3500270E3400F30D1B
:100DC0003200C10D3100900D3000600D2E00320D4B
:100DD0002D00050D2C00D90C2B00AE0C2900850C24
:100DE00029005C0C2700350C27000E0C2600E80BB0
:100DF0002400C40B2400A00B23007D0B23005A0BFE
:100E00002100390B2100180B2000F80A1F00D90A15
:100E10001E00BB0A1E009D0A1D00800A1D00630AF9
:100E20001C00470A1B002C0A1B00110A1A00F709B4
:100E30001A00DD091900C4091900AB09190092094B
:100E400017007B091800630917004C0916003609C2
:100E50001600200916000A091500F5081500E0081B
:100E60001400CC081400B8081400A408140090085A
:100E700013007D0812006B08130058081200460882
:100E80001200340811002308110012081100010893
:100E90001100F0071000E0071000D0071000C00795
:100EA0001000B0070F00A107100091070E00830784
:100EB0000F0074070F0065070E0057070E00490763
:100EC0000E003B070D002E070E0020070D00130734
:100ED0000D0006070D00F9060C00ED060D00E006FA
:100EE0000C00D4060C00C8060C00BC060C00B006B2
:100EF0000C00A4060B0099060C008D060B00820660
:100F00000B0077060B006C060B0061060A00570603
:100F10000B004C060A0042060A0038060A002E069C
:100F20000A0024060A001A060A001006090007062D
:100F30000A00FD050900F4050900EB050900E205BA
:100F40000900D9050900D0050900C7050900BE053B
:100F50000900B5050800AD050800A50509009C05B8
:100F60000800940508008C050800840508007C052D
:100F70000800740508006C050700650508005D059C
:100F80000700560508004E05070047050700400505
:100F9000080038050700310507002A05070023056A
:100FA00007001C050600160507000F0507000805C9
:100FB000060002050700FB040600F5040700EE0426
:100FC0000600E8040600E2040700DB040600D5047E
:100FD0000600CF040600C9040600C3040600BD04D1
:100FE0000600B7040600B1040500AC040600A60420
:100FF0000600A00405009B0406009504050090046B
:1010000006008A04050085040500800406007A04B1
:10101000050075040500700405006B0405006604F6
:101020000500610405005C04050057040500520436
:1010300005004D04050048040500430405003E0476
:1010400004003A04050035040500300404002C04B3
:10105000050027040400230405001E0404001A04EC
:10106000040016040500110404000D040400090422
:1010700005000404040000040400FC030400F80359
:101080000400F4030400F0030400EC030400E8038C
:101090000400E4030400E0030400DC030400D803BC
:1010A0000400D4030400D0030400CC030400C803EC
:1010B0000300C5030300205A3A0020593A00205883
:1010C0003A00656E6473746F7073206869743A20B7
:1010D0000054656D70657261747572652068656134
:1010E00074656420626564207377697463686564FD
:1010F000206F66662E204D415854454D5020747225
:1011000069676765726564202121003A204578741B
:101110007275646572207377697463686564206FA3
:1011200066662E204D494E54454D502074726967B5
:1011300067657265642021003A2045787472756491
:101140006572207377697463686564206F66662EC4
:10115000204D415854454D5020747269676765723F
:101160006564202100202D20496E76616C69642021
:101170006578747275646572206E756D6265722033
:10118000210070012C0190012701B0012201C00152
:101190001D01F00118011002130130020E0160025E
:1011A000090190020401C002FF000003FA0040039D
:1011B000F5008003F000D003EB002004E60070048B
:1011C000E100E004DC004005D700C005D200400685
:1011D000CD00D006C8008007C3003008BE00F0086C
:1011E000B900C009B400B00AAF00B00BAA00D00C1F
:1011F000A500000EA000500F9B00C01096005012DA
:10120000910000148C00C0158700B0178200B0193F
:101210007D00D01B7800001E730040206E009022DD
:101220006900F024640040275F0090295A00E02BF9
:101230005500102E500020304B0010324600E03395
:10124000410090353C001037370070383200A0392B
:101250002D00B03A2800A03B2300603C1E00103D4A
:101260001900903D1400103E0F00703E0A00C03E71
:101270000500003F0000504944204175746F7475AB
:101280006E652066696E69736865642120507574A7
:1012900020746865206C617374204B702C204B693E
:1012A00020616E64204B6420636F6E7374616E7492
:1012B000732066726F6D2061626F766520696E744F
:1012C0006F20436F6E66696775726174696F6E2E09
:1012D0006800504944204175746F74756E652066CE
:1012E00061696C6564212074696D656F7574002097
:1012F000403A006F6B20543A006F6B20423A005026
:101300004944204175746F74756E65206661696C1F
:101310006564212054656D70657261747572652015
:10132000746F6F206869676800204B643A20002062
:101330004B693A2000204B703A200020436C6173C7
:101340007369632050494420002054753A200020DE
:101350004B753A2000206D61783A2000206D696E4F
:101360003A200020643A200020626961733A20002C
:1013700000002100240027002A002D003000330047
:1013800001010000040107010A01000022002500FC
:1013900028002B002E00310034000201000005015E
:1013A00008010B01000020002300260029002C006A
:1013B0002F003200000100000301060109010505AC
:1013C0000505070508080808020202020A0A0808BB
:1013D00004040404010101010101010103030303E9
:1013E00003030303040707070C0C0C0C0C0C0C0C78
:1013F0000202020206060606060606060B0B0B0B89
:101400000B0B0B0B010210202008081020401020AD
:1014100040800201020108040201010204081020B8
:1014200040808040201008040201800402018040B6
:10143000201008040201080402010102040810201F
:10144000408001020408102040800000090A0208C0
:101450000B0C0D0706030401000000000000000053
:10146000000000000000000000000000000000007C
:1014700000000000000011100F000000000000003C
:10148000000000000000000000000000000000005C
:10149000494E46494E4954594E414ECDCCCC3D0A59
:1014A000D7233C17B7D13877CC2B329595E6241F3C
:1014B000B14F0A000020410000C84200401C4620F5
:1014C000BCBE4CCA1B0E5AAEC59D7400407A10F3C8
:1014D0005A00A0724E18090010A5D4E80000E87662
:1014E00048170000E40B54020000CA9A3B000000B9
:1014F000E1F505000080969800000040420F0000D2
:1015000000A08601000000102700000000E8030092
:101510000000006400000000000A0000000000015C
:1015200000000000002C76D888DC674F0823DFC15C
:10153000DFAE59E1B1B796E5E3E453C63AE6519917
:101540007696E8E6C28426EB898C9B62ED407C6F40
:10155000FCEFBC9C9F40F2BAA56FA5F490055A2AF7
:10156000F75C936B6CF9676DC11BFCE0E40D47FE03
:10157000F520E6B500D0ED902E03009435770500F8
:1015800080841E080000204E0A000000C80C33337F
:1015900033330F986E12831141EF8D2114893BE68E
:1015A0005516CFFEE6DB18D1844B381BF77C1D9017
:1015B0001DA4BBE424203284725E228100C9F12480
:1015C000ECA1E53D2700931F606B11241FBECFEFF8
:1015D000D1E2DEBFCDBF00E00CBF14E0A0E0B2E07E
:1015E000E0EEFBEE00E00BBF02C007900D92A236CA
:1015F000B107D9F71BBE1DE0A2E6B4E001C01D9201
:10160000A83EB107E1F715E1CAECD5E104C0229785
:10161000FE010E94A875C63CD107C9F70E948970D7
:101620000C94EE750C940000EF92FF920F931F93B1
:10163000F22FF02E47FD02C0E4E001C0E4E1242FC8
:10164000332727FD309537FF03C0309521953F4F55
:101650004F2D512F0F2FEE2EE1D48F2D912F1F9153
:101660000F91FF90EF900895A0E0B0E0EAE3FBE077
:101670000C94BD75EC015B016115710519F0FB015E
:1016800091838083F9908F2D90E00E94AC75892B17
:10169000C9F7FDE2FF1621F4F990EE24E39405C0AA
:1016A0002BE2F21609F4F990EE248E01015010405D
:1016B000C80160E974E143E050E062D2892BF9F49B
:1016C0008E010E5F1F4FC80163E974E145E050E0F1
:1016D00057D2892B19F48E01095F1F4FA114B10451
:1016E00019F0F50111830083E0FC04C070E090E084
:1016F00080E813C070E090E080E86FEF07C1C80198
:1017000068E974E143E050E03BD2892B69F4A1140D
:10171000B10429F470E090E080EC6FE7F7C0229606
:10172000F501D183C083F6CF8824992440E050E0AE
:1017300060E070E0EF2DE053EA30A0F5F2E0EF2A30
:101740008E2D90E09C0128703070E2FE06C0232BA5
:1017500079F50894811C911C2BC0232B19F0089457
:1017600081089108DB01CA0112E0880F991FAA1FA6
:10177000BB1F1A95D1F7480F591F6A1F7B1F440FD3
:10178000551F661F771F4E0F511D611D711D483972
:1017900029E9520729E9620729E1720748F084E044
:1017A000E82A06C0EE3F31F4E3FC39C098E0E92AAC
:1017B000F990C0CFE53311F0E53189F529912D324B
:1017C00019F4E0E1EE2A05C02B3219F081E090E037
:1017D00003C0299182E090E0E22FE053EA3018F054
:1017E000C81BD90B1CC020E030E0FCE020383F07CC
:1017F0005CF4C901880F991F880F991F280F391FA2
:10180000220F331F2E0F311DE991E053EA3068F3A8
:10181000E4FE03C0309521953F4F820E931ECE2CDF
:10182000DD24E1FE07C0A114B10421F02197F501E8
:10183000D183C083CB01BA010E9411727B018C015C
:10184000F3E0CF22DD2423E0C216D10421F417FBFC
:10185000109517F9109557016801C801B70120E0EC
:1018600030E040E050E00E947171882309F44AC0E2
:1018700097FE0DC02FEAE22E24E1F22E909481947F
:1018800091089394C0E2D0E000E010E012C097EC21
:10189000E92E94E1F92EF6CFF70125913591459186
:1018A0005491C601B5010E9451745B016C018C1A00
:1018B0009D0A8C169D0684F7D595C7950F5F1F4F1F
:1018C0000630110529F08CEF9FEFE80EF91EF1CFDD
:1018D000C501D6017C018D018C2D880F8D2D881FAF
:1018E0008F3F51F0C601B50120E030E040E050E00C
:1018F0000E947171882331F482E290E09093E70DA9
:101900008093E60D7E2D9F2D802F612F272F392F5D
:10191000482F562FB901CA01CDB7DEB7ECE00C94C1
:10192000D9752F923F925F926F927F928F929F9282
:10193000AF92BF92CF92DF92EF92FF920F931F93DD
:10194000CF93DF938C011B01EA016115710519F03A
:10195000FB0191838083209749F0CE010297839702
:1019600028F020E030E040E050E0F6C0F801A1901F
:101970008F018A2D90E00E94AC75892BB9F7FDE2AA
:10198000AF1631F4F801A1908F015524539407C08C
:10199000FBE2AF1619F4F801A1908F0155242097AE
:1019A00019F0C031D105C1F4F0E3AF1679F4F801B4
:1019B0008081883711F0883549F4F801A1800E5FE5
:1019C0001F4FF2E05F2AC0E1D0E006C0209721F46B
:1019D00080E3A816E9F427C0C830D10531F1C93039
:1019E000D10524F4C230D10531F50CC0CA30D1057F
:1019F00089F0C031D105F9F4C12CD12CE12CB8E02B
:101A0000FB2E28C0C12CD12CE12CA0E4FA2E22C040
:101A1000CAE0D0E0FCECCF2EFCECDF2EFCECEF2E8D
:101A2000FCE0FF2E17C0C8E0D0E0C12CD12CE12C87
:101A3000E0E1FE2E0FC09E01442737FD4095542F54
:101A400060E070E080E090E80E946975C901DA0109
:101A50006C017D0120E030E040E050E060E03E01BC
:101A6000882477FC8094982C70EDB72EBA0CE9E0AE
:101A7000EB1570F48A2D81548A3118F499ECB92E43
:101A800006C08A2D81568A3150F589EAB82EBA0CE3
:101A90008B2D90E08C179D0714F56F3FE1F0C21677
:101AA000D306E406F506B0F0CA01B901A40193011A
:101AB0000E9423759B01AC012B0D311D411D511D51
:101AC0002130F0E03F07F0E04F07F0E85F0710F447
:101AD00061E001C06FEFF801A1908F01C5CF211423
:101AE000310481F0662331F001501040F10111837F
:101AF000008308C051FE1AC002501040F10111834A
:101B0000008314C067FF12C050FC05C02FEF3FEFE9
:101B10004FEF5FE704C020E030E040E050E882E2B1
:101B200090E09093E70D8093E60D16C050FE08C03C
:101B300050954095309521953F4F4F4F5F4F0CC0CA
:101B400057FF0AC082E290E09093E70D8093E60D84
:101B50002FEF3FEF4FEF5FE7B901CA01DF91CF9160
:101B60001F910F91FF90EF90DF90CF90BF90AF90BB
:101B70009F908F907F906F905F903F902F900895EF
:101B8000FB01DC014150504088F08D9181341CF004
:101B90008B350CF4805E659161341CF06B350CF470
:101BA000605E861B611171F3990B0895881BFCCF51
:101BB000FB0155915523A9F0BF01DC014D9145175B
:101BC0004111E1F759F4CD010590002049F04D9104
:101BD00040154111C9F3FB014111EFCF81E090E0C5
:101BE00001970895FC018191861721F08823D9F788
:101BF000992708953197CF010895FB01DC018D915C
:101C0000019080190110D9F3990B0895FB01DC01B3
:101C100001900D920020E1F70895FB01DC01415095
:101C2000504030F08D910190801919F40020B9F7DF
:101C3000881B990B0895AEE0B0E0E1E2FEE00C9461
:101C4000C5750E891F898EE08C831A8309838FEFF7
:101C50009FE79E838D839E01265E3F4FCE010196B6
:101C6000688D798DA9010AD02F813885020F131F45
:101C7000F80110822E96E4E00C94E175ABE0B0E040
:101C8000E4E4FEE00C94B7753C012B015A01FC0121
:101C900017821682838181FD03C06FEF7FEFB9C188
:101CA0009AE0892E1E010894211C311CF301238126
:101CB000F20123FD859123FF81912F01882309F4EF
:101CC000A5C1853239F423FD859123FF81912F0130
:101CD000853221F490E0B301F0D3E8CF982FFF24B0
:101CE000EE249924FFE1FF15D0F09B3269F09C327D
:101CF00028F4903259F0933291F40EC09D3249F09D
:101D0000903369F441E024C052E0F52A84E0F82AD7
:101D100028C098E0F92A25C0E0E1FE2A22C0F7FC9D
:101D200029C0892F80538A3070F4F6FE05C0989C34
:101D3000902C1124980E15C0E89CE02C1124E80E7C
:101D4000F0E2FF2A0EC09E3229F4F6FC5FC140E4A7
:101D5000F42A07C09C3619F450E8F52A02C09836D8
:101D600049F4F20123FD959123FF91912F019923CD
:101D700009F0B8CF892F8554833018F08052833012
:101D800038F444E050E0A40EB51E5FE359830FC061
:101D9000933631F0933779F0933509F052C01FC074
:101DA000F5018081898342E050E0A40EB51E6101F7
:101DB00001E010E011C0F501C080D180F6FC03C045
:101DC0006FEF7FEF02C0692D70E042E050E0A40E9B
:101DD000B51EC60167D38C015FE7F52213C0F5017C
:101DE000C080D180F6FC03C06FEF7FEF02C0692D89
:101DF00070E042E050E0A40EB51EC60148D38C014D
:101E000050E8F52AF3FE06C018C080E290E0B30166
:101E100054D3EA948E2D90E008171907B0F30DC043
:101E2000F601F7FC8591F7FE81916F0190E0B30117
:101E300044D3E110EA94015010400115110581F7D7
:101E4000E2C0943611F0993661F5F7FE08C0F5014D
:101E5000208131814281538184E090E00AC0F50104
:101E6000808191819C01442737FD4095542F82E069
:101E700090E0A80EB91E9FE6F92257FF09C05095C1
:101E80004095309521953F4F4F4F5F4FE0E8FE2A38
:101E9000CA01B901A1012AE030E03BD3D82ED21803
:101EA0003FC0953729F41F2D1F7E2AE030E01DC06A
:101EB0001F2D197F9F3661F0903720F4983509F077
:101EC000A5C00FC0903739F0983709F09FC004C003
:101ED00028E030E00AC0106114FD146020E130E019
:101EE00004C014FD166020E132E017FF08C0F501C0
:101EF000608171818281938144E050E008C0F501E6
:101F000080819181BC0180E090E042E050E0A40E2D
:101F1000B51EA101FED2D82ED2188FE7F82EF122DD
:101F2000F6FE0BC05EEFF522D91438F4F4FE07C0BC
:101F3000F2FC05C08FEEF82202C01D2D01C0192D44
:101F4000F4FE0DC0FE01ED0DF11D8081803319F40A
:101F500099EEF92208C01F5FF2FE05C003C08F2D65
:101F6000867809F01F5F0F2DF3FC13C0F0FE0EC042
:101F70001E1510F09D2C0AC09D2C9E0C911A1E2D32
:101F800005C080E290E0B30198D21F5F1E15C8F330
:101F900004C01E1510F4E11A01C0EE2404FF0EC0A7
:101FA00080E390E0B30189D202FF1BC001FD03C0B2
:101FB00088E790E00EC088E590E00BC0802F86781F
:101FC00081F001FF02C08BE201C080E2F7FC8DE2EC
:101FD00090E0B30172D205C080E390E0B3016DD20E
:101FE0009A94D914C8F3DA94F101ED0DF11D8081B2
:101FF00090E0B30162D2DD20B1F705C080E290E04D
:10200000B3015BD2EA94EE20C9F750CEF3016681AA
:102010007781CB012B96E2E10C94D375A9E0B0E077
:10202000E4E1F0E10C94BB756A01122FA02EBE2CE6
:102030002BE3201718F42CE3922E02C0902E9394D9
:10204000AE014F5F5F4F27E0092D49D1BC01898167
:10205000E82EFF24C70189709070019711F4ADE25A
:1020600009C0B1FE02C0ABE205C0B0FC02C0A0E0F6
:1020700001C0A0E2E3FE3BC0AA2311F423E001C0AB
:1020800024E0211710F020E002C0121B212FEB2CBE
:10209000B4FE02C0322F0AC0F601322F80E202C025
:1020A000819331503323E1F7C20ED11CAA2319F0DA
:1020B000F601A1936F01F6013196E2FE05C09EE4A0
:1020C000D6019C9381E404C09EE6D6019C9381E6F0
:1020D00011968C9391833296DF01832F90E202C098
:1020E0009D9381508823E1F7E30FF11D40C0E2FE8C
:1020F00042C0AA2311F423E001C024E0211710F00C
:1021000020E002C0121B212FEB2CB4FE02C0922F44
:102110000AC0F601922F80E202C081939150992368
:10212000E1F7C20ED11CAA2319F0F601A1936F01A9
:10213000F6013196E2FE08C089E4D6018C938EE464
:1021400011968C9386E407C089E6D6018C938EE6BF
:1021500011968C9386E681833296DF01892F20E2E7
:1021600002C02D9381508823E1F7E90FF11D108201
:102170002EEF3FEFAFC0161617061CF041E050E0FF
:1021800003C0AB014F5F5F4FAA2019F480E090E0DD
:1021900003C08A2D90E0019620E030E0AA2311F0E0
:1021A00021E030E0240F351F280F391F812F90E0E8
:1021B0002817390714F020E002C0121B212F4B2DE5
:1021C00050E0CA0180719070B4FC0DC0B3FC0BC02C
:1021D000F601322F40E202C0419331503323E1F740
:1021E000C20ED11C01C0322FAA2319F0F601A1930F
:1021F0006F01892B11F0132F0AC0F601132F80E312
:1022000002C0819311501123E1F7C30ED11C092D97
:10221000060FBA8090E1892E912C8E209F20E4FE3B
:1022200004C0F1E3BF1609F40150101614F001E0E8
:1022300003C0093008F008E09B0177FF02C020E0EE
:1022400030E0CB010196821B930BFE013196E80F23
:10225000F91F8EE2F82E3B01601A71088A2D90E07A
:1022600044275527481B590B8FEF2F3F380719F488
:10227000D601FD926D01621773072CF0621673068A
:1022800014F4808101C080E321503040319624173E
:10229000350724F0D6018D936D01E6CF2617370759
:1022A00049F4B5E3BB1528F0BB1621F48114910461
:1022B00009F481E3F6018193D601812F90E202C0F7
:1022C0009C93815011968823D9F7E10FF11D10825C
:1022D00020E030E0C9012996EEE00C94D775283053
:1022E00008F027E03327DA01990F311D87FD91604F
:1022F00000966105710539F432602E5F3D9330E33D
:102300002A95E1F708959F3F30F080387105610507
:1023100009F03C5F3C5F3D93913008F08068911D6F
:10232000DF93CF931F930F93FF92EF92192F987F14
:102330009695E92F96959695E90FFF27EB5DFA4E56
:1023400099273327EE24FF24A701E701059008947D
:10235000079428F4360FE71EF81E491F511D660F1B
:10236000771F881F991F0694A1F70590079428F4FA
:10237000E70EF81E491F561FC11D770F881F991FB2
:10238000661F0694A1F70590079428F4F80E491FDC
:10239000561FC71FD11D880F991F661F771F0694F0
:1023A000A1F70590079420F4490F561FC71FD81FA7
:1023B000990F661F771F881F0694A9F784911095BF
:1023C000177041F0D695C79557954795F794E794C0
:1023D0001A95C1F7EBECF4E16894159015913591DD
:1023E0006591959105907FE27395E118F10A430B91
:1023F000560BC90BD009C0F7E10CF11E431F561F45
:10240000C91FD01D7EF4703311F48A95E6CFE8948D
:10241000015030F0080F0AF40027021708F4202FAB
:102420002395022F7A3328F079E37D932A95E9F7F3
:1024300010C07D932A9589F60694979567953795F0
:1024400017951794E118F10A430B560BC90BD009E5
:1024500098F023957E9173957A3308F070E37C931E
:102460002013B8F77E9170617D9330F0839571E30E
:102470007D9370E32A95E1F71124EF90FF900F917F
:102480001F91CF91DF91992787FD90950895FC01C9
:102490000590615070400110D8F7809590958E0F8F
:1024A0009F1F0895FC016150704001900110D8F702
:1024B000809590958E0F9F1F08950F931F93CF9334
:1024C000DF938C01EB018B8181FF1BC082FF0DC06C
:1024D0002E813F818C819D812817390764F4E88122
:1024E000F9810193F983E88306C0E885F985802F97
:1024F0001995892B31F48E819F8101969F838E835C
:1025000002C00FEF1FEFC801DF91CF911F910F9114
:102510000895FA01AA27283051F1203181F1E89479
:102520006F936E7F6E5F7F4F8F4F9F4FAF4FB1E0C6
:102530003ED0B4E03CD0670F781F891F9A1FA11DC1
:10254000680F791F8A1F911DA11D6A0F711D811DC2
:10255000911DA11D20D009F468943F912AE0269F87
:1025600011243019305D3193DEF6CF010895462FE6
:102570004770405D4193B3E00FD0C9F7F6CF462FC7
:102580004F70405D4A3318F0495D31FD4052419330
:1025900002D0A9F7EACFB4E0A695979587957795ED
:1025A0006795BA95C9F700976105710508959B0174
:1025B000AC010A2E06945795479537952795BA95FD
:1025C000C9F7620F731F841F951FA01D0895DF9325
:1025D000CF93CDB7DEB766970FB6F894DEBF0FBEC8
:1025E000CDBF8091000290910102A0910202B091B2
:1025F00003028F87988BA98BBA8BFE013F9644E626
:1026000050E08081F999FECF1FBA52BD41BD80BD17
:102610000FB6F894FA9AF99A0FBE4F5F5F4F48369B
:10262000510511F03196EDCFE4E3F7E08081F9999F
:10263000FECF1FBA52BD41BD80BD0FB6F894FA9AC5
:10264000F99A0FBE4F5F5F4F4837510511F0319631
:10265000EDCFE4E2F7E08081F999FECF1FBA52BDD9
:1026600041BD80BD0FB6F894FA9AF99A0FBE4F5F3C
:102670005F4F4838510511F03196EDCFE4E4F7E0B3
:102680008081F999FECF1FBA52BD41BD80BD0FB602
:10269000F894FA9AF99A0FBE4F5F5F4F4839510587
:1026A00011F03196EDCFE8E5F7E08081F999FECFA2
:1026B0001FBA52BD41BD80BD0FB6F894FA9AF99A7F
:1026C0000FBE4F5F5F4F4C39510511F03196EDCF82
:1026D000ECE5F7E08081F999FECF1FBA52BD41BD0C
:1026E00080BD0FB6F894FA9AF99A0FBE4F5F5F4F0C
:1026F000403A510511F03196EDCFE4E5F7E08081E5
:10270000F999FECF1FBA52BD41BD80BD0FB6F894F6
:10271000FA9AF99A0FBE4F5F5F4F443A510511F094
:102720003196EDCFECE6F7E08081F999FECF1FBA44
:1027300052BD41BD80BD0FB6F894FA9AF99A0FBE0A
:102740004F5F5F4F483A510511F03196EDCFE0E20F
:10275000F7E08081F999FECF1FBA52BD41BD80BD1F
:102760000FB6F894FA9AF99A0FBE4F5F5F4F4C3A42
:10277000510511F03196EDCFE0E6F7E08081F9994F
:10278000FECF1FBA52BD41BD80BD0FB6F894FA9A74
:10279000F99A0FBE4F5F5F4F403B510511F03196E4
:1027A000EDCFE4E6F7E08081F999FECF1FBA52BD84
:1027B00041BD80BD0FB6F894FA9AF99A0FBE4F5FEB
:1027C0005F4F443B510511F03196EDCFE8E6F7E05D
:1027D0008081F999FECF1FBA52BD41BD80BD0FB6B1
:1027E000F894FA9AF99A0FBE4F5F5F4F483B510534
:1027F00011F03196EDCFEEEFF4E08081F999FECF44
:102800001FBA52BD41BD80BD0FB6F894FA9AF99A2D
:102810000FBE4F5F5F4F443C510511F03196EDCF35
:1028200084EB90E09A83898386E490E09C838B8399
:102830002FEF30E03E832D8380EF90E098878F83E9
:1028400084E690E09A8789873C872B87FE01319642
:102850008081F999FECF1FBA52BD41BD80BD0FB630
:10286000F894FA9AF99A0FBE4F5F5F4F463C5105B4
:1028700071F7FE0133968081F999FECF1FBA52BDE0
:1028800041BD80BD0FB6F894FA9AF99A0FBE4F5F1A
:102890005F4F483C510511F03196EDCFFE01359662
:1028A0008081F999FECF1FBA52BD41BD80BD0FB6E0
:1028B000F894FA9AF99A0FBE4F5F5F4F4A3C510560
:1028C00011F03196EDCFFE0137968081F999FECF58
:1028D0001FBA52BD41BD80BD0FB6F894FA9AF99A5D
:1028E0000FBE4F5F5F4F4C3C510511F03196EDCF5D
:1028F000FE0139968081F999FECF1FBA52BD41BDC4
:1029000080BD0FB6F894FA9AF99A0FBE4F5F5F4FE9
:102910004E3C510511F03196EDCFFE013B96808182
:10292000F999FECF1FBA52BD41BD80BD0FB6F894D4
:10293000FA9AF99A0FBE4F5F5F4F403D510511F073
:102940003196EDCFE9E1F5E08081F999FECF1FBA2C
:1029500052BD41BD80BD0FB6F894FA9AF99A0FBEE8
:102960004F5F5F4F443D510511F03196EDCFEFECD5
:10297000F3E08081F999FECF1FBA52BD41BD80BD01
:102980000FB6F894FA9AF99A0FBE4F5F5F4F483D21
:10299000510511F03196EDCFE3EDF3E08081F99927
:1029A000FECF1FBA52BD41BD80BD0FB6F894FA9A52
:1029B000F99A0FBE4F5F5F4F4C3D510511F03196B4
:1029C000EDCFE7EDF3E08081F999FECF1FBA52BD5C
:1029D00041BD80BD0FB6F894FA9AF99A0FBE4F5FC9
:1029E0005F4F403E510511F03196EDCF80E290E00F
:1029F0009E878D87FE013D968081F999FECF1FBA93
:102A000052BD41BD80BD0FB6F894FA9AF99A0FBE37
:102A1000413E510521F0319641EE50E0EDCF20913D
:102A2000ED04F999FECF1FBA82EE90E092BD81BD10
:102A300020BD0FB6F894FA9AF99A0FBEEAE9F3E0CE
:102A400083EE90E02081F999FECF1FBA92BD81BD3F
:102A500020BD0FB6F894FA9AF99A0FBE0196873EF8
:102A6000910511F03196EECFE4E3F5E02081F9997C
:102A7000FECF1FBA92BD81BD20BD0FB6F894FA9A61
:102A8000F99A0FBE0196833F910511F03196EECF72
:102A9000E0E4F5E02081F999FECF1FBA92BD81BD37
:102AA00020BD0FB6F894FA9AF99A0FBE8E3F9105A1
:102AB00019F001963196EECF909150058091510515
:102AC000882311F0926001C09D7F80915205882378
:102AD00011F0946001C09B7F80914C05882311F018
:102AE000986001C0977F80914D05882311F0906117
:102AF00001C09F7E80914E05882311F0906201C035
:102B00009F7D80914F05882319F0292F206402C0F2
:102B1000292F2F7BF999FECF1FBA8FEF90E092BD3E
:102B200081BD20BD0FB6F894FA9AF99A0FBE809134
:102B3000040290910502A0910602B09107028B8BCE
:102B40009C8BAD8BBE8BFE01739684E690E020815A
:102B5000F999FECF1FBA92BD81BD20BD0FB6F89482
:102B6000FA9AF99A0FBE8736910519F001963196B7
:102B7000EECFE7EBF3E0949108C08091C00085FFB1
:102B8000FCCF9093C600319694919923B1F7E0EA77
:102B9000F3E0949108C08091C00085FFFCCF909332
:102BA000C600319694919923B1F78091C00085FFBA
:102BB000FCCF8AE08093C60066960FB6F894DEBF1D
:102BC0000FBECDBFCF91DF910895EF92FF920F938B
:102BD0001F93DF93CF93CDB7DEB7E0970FB6F8948E
:102BE000DEBF0FBECDBFDE011196E5E0F4E080E16F
:102BF00001900D928150E1F7DE015196E5EFF3E08F
:102C000080E101900D928150E1F7DE019196E5EEB1
:102C1000F3E080E101900D928150E1F789819A8182
:102C2000AB81BC818093340790933507A09336071E
:102C3000B093370789899A89AB89BC898093240727
:102C400090932507A0932607B093270789A19AA1FF
:102C5000ABA1BCA18093440790934507A09346077E
:102C6000B09347078D819E81AF81B88580933807E7
:102C700090933907A0933A07B0933B078D899E89BB
:102C8000AF89B88D8093280790932907A0932A07CE
:102C9000B0932B078DA19EA1AFA1B8A58093480743
:102CA00090934907A0934A07B0934B0789859A856B
:102CB000AB85BC8580933C0790933D07A0933E076E
:102CC000B0933F07898D9A8DAB8DBC8D80932C0777
:102CD00090932D07A0932E07B0932F0789A59AA54F
:102CE000ABA5BCA580934C0790934D07A0934E07CE
:102CF000B0934F078D859E85AF85B8898093400737
:102D000090934107A0934207B09343078D8D9E8D0A
:102D1000AF8DB8A18093300790933107A09332070D
:102D2000B09333078DA59EA5AFA5B8A98093500792
:102D300090935107A0935207B09353070E94024704
:102D400080E090E0A8ECB3E4809358079093590793
:102D5000A0935A07B0935B0780E090E8ABE3B5E43B
:102D600080935C0790935D07A0935E07B0935F0725
:102D70000F2EF0E0EF2EF0E0FF2EF0E00F2FF0E04E
:102D80001F2FF02DE0925407F0925507009356073D
:102D90001093570780E29EE4A0E0B0E08093200704
:102DA00090932107A0932207B0932307E0926C072A
:102DB000F0926D0700936E0710936F0780E090E02C
:102DC000A0EAB1E48093600790936107A093620743
:102DD000B09363078DEC9CECACECBEE3809364078E
:102DE00090936507A0936607B093670780E090E033
:102DF000A0EAB0E48093680790936907A0936A07FC
:102E0000B0936B07E0920605F09207050093080562
:102E100010930905E0920205F09203050093040562
:102E200010930505E092FE04F092FF040093000564
:102E3000109301058AE999E9A1EBB1E48093CF03EE
:102E40009093D003A093D103B093D20361E77DE3C5
:102E50008AE89FE30E9448616093D3037093D40390
:102E60008093D5039093D60360E070E084EE92E403
:102E70000E9454616093D7037093D8038093D90361
:102E80009093DA030E940F6180E090E0A0E8BFE336
:102E90008093DB039093DC03A093DD03B093DE0308
:102EA0001092ED0480E090E0A0E4B0E480939A03F7
:102EB00090939B03A0939C03B0939D03E0923C05E9
:102EC000F0923D0500933E0510933F05E0923805D2
:102ED000F092390500933A0510933B05E0923405D2
:102EE000F0923505009336051093370580E090E0A9
:102EF000A6E1B3E48093480590934905A0934A0561
:102F0000B0934B058093440590934505A0934605E7
:102F1000B09347058093400590934105A0934205E7
:102F2000B093430581E080935005809351058093D1
:102F3000520510924C0580934D0510924E058093DA
:102F40004F050E946322E7EBF3E0949108C0809163
:102F5000C00085FFFCCF9093C600319694919923D1
:102F6000B1F7EFE2F1E0949108C08091C00085FFD5
:102F7000FCCF9093C600319694919923B1F780913C
:102F8000C00085FFFCCF8AE08093C600E0960FB6B4
:102F9000F894DEBF0FBECDBFCF91DF911F910F918F
:102FA000FF90EF900895CF93DF93C7EBD3E0FE013E
:102FB000949108C08091C00085FFFCCF9093C6001B
:102FC000319694919923B1F7E0E9F3E0949108C028
:102FD0008091C00085FFFCCF9093C60031969491FC
:102FE0009923B1F78091C00085FFFCCF8AE08093E0
:102FF000C600FE019491E7EBF3E008C08091C000A9
:1030000085FFFCCF9093C600319694919923B1F738
:10301000409134075091350760913607709137071A
:1030200088E893E00E947226409138075091390752
:1030300060913A0770913B0785E893E00E94722601
:1030400040913C0750913D0760913E0770913F07CA
:1030500082E893E00E947226409140075091410718
:1030600060914207709143078FE793E00E947226B8
:10307000E8E0F2E007C08091C00085FFFCCF319608
:103080009093C60090819923B1F78091C00085FF8D
:10309000FCCF8AE08093C600FE019491E7EBF3E059
:1030A00008C08091C00085FFFCCF9093C600319688
:1030B00094919923B1F7E5E6F3E0949108C08091EB
:1030C000C00085FFFCCF9093C60031969491992360
:1030D000B1F78091C00085FFFCCF8AE08093C600E5
:1030E000FE019491E7EBF3E008C08091C00085FFFA
:1030F000FCCF9093C600319694919923B1F74091FB
:1031000024075091250760912607709127078CE5C9
:1031100093E00E9472264091280750912907609100
:103120002A0770912B0789E593E00E94722640914F
:103130002C0750912D0760912E0770912F0786E57F
:1031400093E00E94722640913007509131076091C0
:1031500032077091330783E593E00E947226E8E01E
:10316000F2E007C08091C00085FFFCCF31969093BC
:10317000C60090819923B1F78091C00085FFFCCFF4
:103180008AE08093C600FE019491E7EBF3E008C06B
:103190008091C00085FFFCCF9093C600319694913A
:1031A0009923B1F7E5E3F3E0949108C08091C00062
:1031B00085FFFCCF9093C600319694919923B1F787
:1031C0008091C00085FFFCCF8AE08093C600FE019D
:1031D0009491E7EBF3E008C08091C00085FFFCCF3D
:1031E0009093C600319694919923B1F7409144078A
:1031F0005091450760914607709147078CE293E034
:103200000E948426409148075091490760914A07DF
:1032100070914B0789E293E00E94842640914C070D
:1032200050914D0760914E0770914F0786E293E0F1
:103230000E94842640915007509151076091520797
:103240007091530783E293E00E948426E8E0F2E065
:1032500007C08091C00085FFFCCF31969093C600D7
:1032600090819923B1F78091C00085FFFCCF8AE05F
:103270008093C600FE019491E7EBF3E008C08091D3
:10328000C00085FFFCCF9093C6003196949199239E
:10329000B1F7EEEEF2E0949108C08091C00085FF96
:1032A000FCCF9093C600319694919923B1F7809109
:1032B000C00085FFFCCF8AE08093C600FE01949198
:1032C000E7EBF3E008C08091C00085FFFCCF90934E
:1032D000C600319694919923B1F7409158075091C7
:1032E000590760915A0770915B0785EE92E00E9442
:1032F000722640915C0750915D0760915E07709166
:103300005F0782EE92E00E947226E8E0F2E007C0DA
:103310008091C00085FFFCCF31969093C6009081CC
:103320009923B1F78091C00085FFFCCF8AE080939C
:10333000C600FE019491E7EBF3E008C08091C00065
:1033400085FFFCCF9093C600319694919923B1F7F5
:10335000EFE2F2E0949108C08091C00085FFFCCFBD
:103360009093C600319694919923B1F78091C00053
:1033700085FFFCCF8AE08093C600FE019491E7EBC5
:10338000F3E008C08091C00085FFFCCF9093C60099
:10339000319694919923B1F7409154075091550774
:1033A000609156077091570786E292E00E9472265C
:1033B00040916C0750916D0760916E0770916F0797
:1033C00083E292E00E9472264091200750912107EB
:1033D000609122077091230780E292E00E94842688
:1033E0004091600750916107609162077091630797
:1033F0008DE192E00E94722640916407509165072A
:1034000060916607709167078AE192E00E947226D8
:10341000409168075091690760916A0770916B0746
:1034200087E192E00E947226E8E0F2E007C0809116
:10343000C00085FFFCCF31969093C6009081992300
:10344000B1F78091C00085FFFCCF8AE08093C60071
:10345000FE019491E7EBF3E008C08091C00085FF86
:10346000FCCF9093C600319694919923B1F7E5E093
:10347000F2E0949108C08091C00085FFFCCF90934A
:10348000C600319694919923B1F78091C00085FFD1
:10349000FCCF8AE08093C600FE019491E7EBF3E055
:1034A00008C08091C00085FFFCCF9093C600319684
:1034B00094919923B1F74091FE045091FF046091DB
:1034C0000005709101058CEF91E00E9472264091F9
:1034D000020550910305609104057091050589EF7F
:1034E00091E00E9472264091060550910705609177
:1034F00008057091090586EF91E00E947226E8E0C8
:10350000F2E007C08091C00085FFFCCF3196909318
:10351000C60090819923B1F78091C00085FFFCCF50
:103520008AE08093C600FE019491E7EBF3E008C0C7
:103530008091C00085FFFCCF9093C6003196949196
:103540009923B1F7E8EEF1E0949108C08091C000B2
:1035500085FFFCCF9093C600319694919923B1F7E3
:103560008091C00085FFFCCF8AE08093C600FE01F9
:103570009491E7EBF3E008C08091C00085FFFCCF99
:103580009093C600319694919923B1F74091CF035F
:103590005091D0036091D1037091D2038EED91E0F0
:1035A0000E9472266091D3037091D4038091D50359
:1035B0009091D6030E944E61AB01BC018BED91E06E
:1035C0000E9472266091D7037091D8038091D9032D
:1035D0009091DA030E945A61AB01BC0188ED91E041
:1035E0000E947226E8E0F2E007C08091C00085FFEB
:1035F000FCCF31969093C60090819923B1F78091CA
:10360000C00085FFFCCF8AE08093C600FE01949144
:10361000E7EBF3E008C08091C00085FFFCCF9093FA
:10362000C600319694919923B1F7EFECF1E09491B3
:1036300008C08091C00085FFFCCF9093C6003196F2
:1036400094919923B1F78091C00085FFFCCF8AE067
:103650008093C600FE019491E7EBF3E008C08091EF
:10366000C00085FFFCCF9093C600319694919923BA
:10367000B1F7409134055091350560913605709150
:10368000370587EC91E00E947226409138055091F1
:10369000390560913A0570913B0584EC91E00E94F8
:1036A000722640913C0550913D0560913E05709118
:1036B0003F0581EC91E00E947226E8E0F2E007C04D
:1036C0008091C00085FFFCCF31969093C600908119
:1036D0009923B1F78091C00085FFFCCF8AE08093E9
:1036E000C600FE019491E7EBF3E008C08091C000B2
:1036F00085FFFCCF9093C600319694919923B1F742
:10370000E8EBF1E0949108C08091C00085FFFCCF08
:103710009093C600319694919923B1F78091C0009F
:1037200085FFFCCF8AE08093C60040914005509110
:103730004105609142057091430580EB91E00E9444
:10374000722640914405509145056091460570915F
:1037500047058DEA91E00E947226409148055091FC
:10376000490560914A0570914B058AEA91E00E94F3
:103770007226E8E0F2E007C08091C00085FFFCCF30
:1037800031969093C60090819923B1F78091C00043
:1037900085FFFCCF8AE08093C600FE019491E7EBA1
:1037A000F3E008C08091C00085FFFCCF9093C60075
:1037B000319694919923B1F7E6E9F1E0949108C02C
:1037C0008091C00085FFFCCF9093C6003196949104
:1037D0009923B1F78091C00085FFFCCF8AE08093E8
:1037E000C60080915005882329F440E050E060E055
:1037F00070E004C040E050E060E87FE38EE891E0D4
:103800000E94602680915105882329F440E050E011
:1038100060E070E004C040E050E060E87FE38BE8E7
:1038200091E00E94602680915205882329F440E0AF
:1038300050E060E070E004C040E050E060E87FE30A
:1038400088E891E00E946026E8E0F2E007C08091FD
:10385000C00085FFFCCF31969093C60090819923DC
:10386000B1F78091C00085FFFCCF8AE08093C6004D
:10387000FE019491E7EBF3E008C08091C00085FF62
:10388000FCCF9093C600319694919923B1F7ECE761
:10389000F1E0949108C08091C00085FFFCCF909327
:1038A000C600319694919923B1F78091C00085FFAD
:1038B000FCCF8AE08093C60080914C05882329F4D0
:1038C00040E050E060E070E004C040E050E060E8BC
:1038D0007FE384E791E00E94602680914D05882374
:1038E00029F440E050E060E070E004C040E050E0C7
:1038F00060E87FE381E791E00E94602680914E05B9
:10390000882329F440E050E060E070E004C040E02B
:1039100050E060E87FE38EE691E00E9460268091AF
:103920004F05882329F440E050E060E070E004C0D7
:1039300040E050E060E87FE38BE691E00E94602683
:10394000E8E0F2E007C08091C00085FFFCCF31962F
:103950009093C60090819923B1F78091C00085FFB4
:10396000FCCF8AE08093C600DF91CF9108950F933A
:103970001F93DF93CF93CDB7DEB766970FB6F8945A
:10398000DEBF0FBECDBF8091040290910502A091D1
:103990000602B09107028B8B9C8BAD8BBE8BFE0118
:1039A0003F9604E610E0F999FECF12BD01BDF89AEA
:1039B00080B580830F5F1F4F0836110511F03196D7
:1039C000F2CFCE014396BE01615F7F4F43E050E0EE
:1039D0000E940D0E009709F004C2E4E3F7E0F999A4
:1039E000FECF12BD01BDF89A80B580830F5F1F4FD7
:1039F0000837110511F03196F2CFE4E2F7E0F999BA
:103A0000FECF12BD01BDF89A80B580830F5F1F4FB6
:103A10000838110511F03196F2CFE4E4F7E0F99996
:103A2000FECF12BD01BDF89A80B580830F5F1F4F96
:103A30000839110511F03196F2CF0E940247E8E5EE
:103A4000F7E0F999FECF12BD01BDF89A80B58083E9
:103A50000F5F1F4F0C39110511F03196F2CFECE5D5
:103A6000F7E0F999FECF12BD01BDF89A80B58083C9
:103A70000F5F1F4F003A110511F03196F2CFE4E5C8
:103A8000F7E0F999FECF12BD01BDF89A80B58083A9
:103A90000F5F1F4F043A110511F03196F2CFECE69B
:103AA000F7E0F999FECF12BD01BDF89A80B5808389
:103AB0000F5F1F4F083A110511F03196F2CFE0E287
:103AC000F7E0F999FECF12BD01BDF89A80B5808369
:103AD0000F5F1F4F0C3A110511F03196F2CFE0E65F
:103AE000F7E0F999FECF12BD01BDF89A80B5808349
:103AF0000F5F1F4F003B110511F03196F2CFE4E646
:103B0000F7E0F999FECF12BD01BDF89A80B5808328
:103B10000F5F1F4F043B110511F03196F2CFE8E61D
:103B2000F7E0F999FECF12BD01BDF89A80B5808308
:103B30000F5F1F4F083B110511F03196F2CFEEEFEA
:103B4000F4E0F999FECF12BD01BDF89A80B58083EB
:103B50000F5F1F4F043C110511F03196F2CFFE01AB
:103B60003196F999FECF12BD01BDF89A80B58083D8
:103B70000F5F1F4F063C110599F7FE013396F99927
:103B8000FECF12BD01BDF89A80B580830F5F1F4F35
:103B9000083C110511F03196F2CFFE013596F999E6
:103BA000FECF12BD01BDF89A80B580830F5F1F4F15
:103BB0000A3C110511F03196F2CFFE013796F999C2
:103BC000FECF12BD01BDF89A80B580830F5F1F4FF5
:103BD0000C3C110511F03196F2CFFE013996F9999E
:103BE000FECF12BD01BDF89A80B580830F5F1F4FD5
:103BF0000E3C110511F03196F2CFFE013B96F9997A
:103C0000FECF12BD01BDF89A80B580830F5F1F4FB4
:103C1000003D110511F03196F2CFE9E1F5E0F99997
:103C2000FECF12BD01BDF89A80B580830F5F1F4F94
:103C3000043D110511F03196F2CFEFECF3E0F99964
:103C4000FECF12BD01BDF89A80B580830F5F1F4F74
:103C5000083D110511F03196F2CFE3EDF3E0F9994B
:103C6000FECF12BD01BDF89A80B580830F5F1F4F54
:103C70000C3D110511F03196F2CFE7EDF3E0F99923
:103C8000FECF12BD01BDF89A80B580830F5F1F4F34
:103C9000003E110511F03196F2CFFE013D96F999E3
:103CA000FECF12BD01BDF89A80B58083013E11059B
:103CB00021F0319601EE10E0F2CFF999FECF82EEBD
:103CC00090E092BD81BDF89A80B58093ED04EAE959
:103CD000F3E023EE30E0F999FECF32BD21BDF89A32
:103CE00080B580832F5F3F4F273E310511F031961D
:103CF000F2CFE4E3F5E0F999FECF32BD21BDF89AA9
:103D000080B580832F5F3F4F233F310511F03196FF
:103D1000F2CFE0E4F5E0F999FECF32BD21BDF89A8B
:103D200080B580832E3F310521F02F5F3F4F3196C4
:103D3000F2CFF999FECF8FEF90E092BD81BDF89A56
:103D400080B590E09C0121703070209350059695CD
:103D50008795282F21702093510596958795282FB8
:103D600021702093520596958795282F21702093D6
:103D70004C0596958795282F217020934D05969593
:103D80008795282F217020934E05969587958170F1
:103D900080934F0598D30E940F61E7EBF3E0949175
:103DA00008C08091C00085FFFCCF9093C60031967B
:103DB00094919923B1F7E1E5F1E0949108C08091E5
:103DC000C00085FFFCCF9093C60031969491992353
:103DD000B1F78091C00085FFFCCF8AE08093C600D8
:103DE00002C00E94E515DFD866960FB6F894DEBFD4
:103DF0000FBECDBFCF91DF911F910F9108951F92FC
:103E00000F920FB60F920BB60F9211242F933F9380
:103E10004F938F939F93EF93FF934091C600E09150
:103E2000E204F091E30431969F012F7730703197CF
:103E30008091E4049091E5042817390739F0EE5990
:103E4000FB4F40833093E3042093E204FF91EF9112
:103E50009F918F914F913F912F910F900BBE0F909B
:103E60000FBE0F901F9018959A01AB01203081EE84
:103E7000380780E0480780E0580749F182E08093E6
:103E8000C00060E079E08DE390E00E948B752150E6
:103E9000304040405040CA01B90122E030E040E0EB
:103EA00050E00E948B753093C5002093C400809130
:103EB000C10080618093C1008091C10088608093BF
:103EC000C1008091C10080688093C1000895109264
:103ED000C00020E130E0E7CF2091E4043091E50418
:103EE0008091E2049091E3048217930719F42FEF75
:103EF0003FEF0EC0F901EE59FB4F80812F5F3F4F1E
:103F00002F7730703093E5042093E404282F30E0BD
:103F1000C90108958091E4049091E5049093E3042D
:103F20008093E204089508952F923F924F925F92FA
:103F30006F927F928F929F92AF92BF92CF92DF92B9
:103F4000EF92FF920F931F93DF93CF93CDB7DEB71E
:103F5000A0970FB6F894DEBF0FBECDBF1C016A015B
:103F60007B01411551056105710541F440E350E0C5
:103F700060E070E020E030E08BD055C088249924C8
:103F80005401422E55246624772401E010E00C0FE2
:103F90001D1F080D191DC701B601A30192010E9442
:103FA0006975F80160830894811C911CA11CB11CE7
:103FB000C701B601A30192010E946975C901DA0126
:103FC0006C017D01C114D104E104F104F1F681E03A
:103FD000E82EF12CEC0EFD1EE80CF91C3E010894B5
:103FE000611C711CD501C4010197A109B1096C01C3
:103FF000C818D90815C0F601EE0DFF1D40814A30E2
:1040000010F4405D01C0495C552747FD5095652F70
:10401000752FC10120E030E03BD00894E108F108A1
:104020006E147F0441F7A0960FB6F894DEBF0FBE62
:10403000CDBFCF91DF911F910F91FF90EF90DF9057
:10404000CF90BF90AF909F908F907F906F905F9038
:104050004F903F902F9008952115310539F48091AC
:10406000C00085FFFCCF4093C60008955DCFEF925E
:10407000FF920F931F939A01E62EFF2400E010E0B9
:10408000B801A701E9DF1F910F91FF90EF9008950C
:10409000EF92FF920F931F93CF93DF93EC017A017E
:1040A0008B012115310539F48091C00085FFFCCFCB
:1040B000E092C60019C02A303105A9F477FF0FC07D
:1040C0004DE250E060E070E020E030E0E1DF10958C
:1040D0000095F094E094E11CF11C011D111DCE012E
:1040E000B801A7012AE020DFDF91CF911F910F9146
:1040F000FF90EF900895EF92FF920F931F937B0133
:104100009A010027F7FC0095102FB801A701C0DF26
:104110001F910F91FF90EF9008950F931F938C01C3
:104120004DE050E060E070E020E030E0B1DFC80139
:104130004AE050E060E070E020E030E0A9DF1F914D
:104140000F910895CF92DF92EF92FF920F931F93FA
:104150008C019A016B01EE24FF24B701A6017CDFDC
:10416000C801DBDF1F910F91FF90EF90DF90CF90A0
:104170000895AC01FB0107C08091C00085FFFCCF12
:1041800031962093C60020812223B1F7CA01C5CF02
:10419000CF92DF92EF92FF920F931F938C016B01EE
:1041A0009A01EE24D7FCE094FE2CB701A60170DF43
:1041B000C801B3DF1F910F91FF90EF90DF90CF9078
:1041C00008959F92AF92BF92CF92DF92EF92FF92AB
:1041D0000F931F93CF93DF93EC017A018B01922E03
:1041E000CB01BA0120E030E040E050E00E94717164
:1041F000882364F4CE014DE250E060E070E020E0FE
:1042000030E046DF17FB109517F9109520E030E0FD
:1042100040E05FE3AA240BC0CA01B90120E030E00E
:1042200040E251E40E9478719B01AC01A394A9146F
:1042300098F3C801B7010E9498707B018C010E941D
:10424000E5715B016C010E9411729B01AC01C80118
:10425000B7010E9497707B018C01CE01B601A501C8
:104260002AE030E0F9DE992099F1E9E0F2E007C0B8
:104270008091C00085FFFCCF31969093C60090815D
:104280009923B1F725C0C801B70120E030E040E232
:1042900051E40E9451747B018C010E94E0715B012A
:1042A0006C01CC24B7FCC094DC2CCE01B601A50176
:1042B0002AE030E0EDDEC601B5010E9413729B01D9
:1042C000AC01C801B7010E9497707B018C019A94E0
:1042D0009920C9F6DF91CF911F910F91FF90EF9038
:1042E000DF90CF90BF90AF909F9008956ACF0895D0
:1042F0000F931F938C0165DFC8010FDF1F910F9192
:104300000895EF92FF920F931F93CF93DF93EC01E9
:10431000E0900A05F0900B0500910C0510910D0539
:10432000688179818A819B81A80197010E947171BE
:10433000882324F4E882F9820A831B83E0900E0527
:10434000F0900F0500911005109111056C817D8191
:104350008E819F81A80197010E947171882324F4A6
:10436000EC82FD820E831F8380918505882311F1E5
:1043700060911205709113058091140590911505B7
:1043800020910605309107054091080550910905D7
:104390000E9497707B018C01688579858A859B8551
:1043A000A80197010E947171882324F4E886F98698
:1043B0000A871B87E090A203F090A3030091A40357
:1043C0001091A503688179818A819B81A801970159
:1043D0000E947F73181624F4E882F9820A831B83F3
:1043E000E090A603F090A7030091A8031091A90301
:1043F0006C817D818E819F81A80197010E947F73CE
:10440000181624F4EC82FD820E831F83E090AA0329
:10441000F090AB030091AC031091AD0368857985F2
:104420008A859B85A80197010E947F73181624F442
:10443000E886F9860A871B87DF91CF911F910F913C
:10444000FF90EF900895809129050895EF92FF92D3
:104450000F931F939B01AC018091ED04882321F100
:10446000CA01B90120E030E040E05FE30E945174EE
:104470007B018C0120E030E040E050E00E9471714F
:10448000882391F0C801B701A80197010E945174D7
:104490009B01AC01CA012BED3FE049E450E40E94CE
:1044A00051749B01AC0104C020E030E040E85FE3C0
:1044B00060E070E080E89FE30E9478711F910F91A7
:1044C000FF90EF90089560919A0370919B03809103
:1044D0009C0390919D03BADF60939E0370939F03AA
:1044E0008093A0039093A10308950E94326180916C
:1044F0002905882309F036C081E080932905809141
:10450000550590915605A0915705B0915805809397
:10451000590590935A05A0935B05B0935C05E0EBB9
:10452000F3E0949108C08091C00085FFFCCF909388
:10453000C600319694919923B1F7EDEBF3E0949195
:1045400008C08091C00085FFFCCF9093C6003196D3
:1045500094919923B1F78091C00085FFFCCF8AE048
:104560008093C6000895CF93DF93F8940E94326140
:104570005F9A109216058A9A109217058FB7F894D1
:10458000909108019160909308018FBF10921805D7
:10459000129A8CE060E00E94756FE0EBF3E094917A
:1045A00008C08091C00085FFFCCF9093C600319673
:1045B00094919923B1F7E3E3F4E0949108C08091DA
:1045C000C00085FFFCCF9093C6003196949199234B
:1045D000B1F78091C00085FFFCCF8AE08093C600D0
:1045E0007894C5E0D0E006C068EC70E080E090E030
:1045F0000E94DC6D21978FEFCF3FD807A9F7F89481
:10460000FFCF0E94CE6D60935F057093600580932D
:10461000610590936205E2E5F4E0949108C0809111
:10462000C00085FFFCCF9093C600319694919923EA
:10463000B1F78091C00085FFFCCF8AE08093C6006F
:1046400008956F927F928F929F92AF92BF92CF9276
:10465000DF92EF92FF920F931F93F82E60916905FE
:1046600070916A0580916B0590916C0520916D05A4
:1046700030916E0540916F05509170050E948C73CA
:104680003B014C0100D000D00DB71EB70F5F1F4F8C
:104690006091940370919503882777FD8095982FFA
:1046A0000E9413722091B5033091B6034091B70375
:1046B0005091B8030E94517420E030E040E752E48A
:1046C0000E94787120E030E048EC52E40E9478715A
:1046D0005B016C01F8016082718282829382F482B4
:1046E00080911D0585838EEE94E065E775E049E6CF
:1046F00055E020E001E032E0E32E0E94FC41809191
:10470000750590917605A0917705B0917805809315
:10471000EE049093EF04A093F004B093F104809121
:10472000790590917A05A0917B05B0917C058093E5
:10473000F2049093F304A093F404B093F5048091F1
:104740007D0590917E05A0917F05B09180058093B5
:10475000F6049093F704A093F804B093F9048091C1
:10476000810590918205A0918305B0918405809385
:10477000FA049093FB04A093FC04B093FD048DB75E
:104780009EB706960FB6F8949EBF0FBE8DBF0E94CF
:10479000CE6D60935F057093600580936105909383
:1047A00062051F910F91FF90EF90DF90CF90BF9027
:1047B000AF909F908F907F906F900895CF92DF92EF
:1047C000EF92FF920F931F9385E795E09ADD0E9489
:1047D000CE6D60935F057093600580936105909343
:1047E00062056091EE047091EF048091F004909165
:1047F000F10420917505309176054091770550912F
:1048000078050E947171882309F07AC06091F204E2
:104810007091F3048091F4049091F504209179054E
:1048200030917A0540917B0550917C050E94717111
:10483000882309F065C06091B5037091B60380913B
:10484000B7039091B80320E030E040E752E40E94C3
:1048500078717B018C0185E795E069E775E04DE7AC
:1048600055E021E835E0EDE1CE2EE5E0DE2E0E94B8
:10487000504C8091750590917605A0917705B09187
:1048800078058093EE049093EF04A093F004B09326
:10489000F1048091790590917A05A0917B05B09102
:1048A0007C058093F2049093F304A093F404B093F6
:1048B000F50480917D0590917E05A0917F05B091D2
:1048C00080058093F6049093F704A093F804B093C6
:1048D000F9048091810590918205A0918305B091A2
:1048E00084058093FA049093FB04A093FC04B09396
:1048F000FD041F910F91FF90EF90DF90CF900895EE
:104900006091940370919503882777FD8095982F87
:104910000E9413722091B5033091B6034091B70302
:104920005091B8030E94517420E030E040E752E417
:104930000E94787120E030E048EC52E488CF86EEA7
:1049400094E0E8DAE5E5F4E0949108C08091C000D5
:1049500085FFFCCF9093C600319694919923B1F7CF
:104960004091550550915605609157057091580535
:104970004F5F5F4F6F4F7F4F86EE94E02AE030E04D
:1049800087DB8091C00085FFFCCF8AE08093C60062
:1049900038CE2F923F924F925F926F927F928F927A
:1049A0009F92AF92BF92CF92DF92EF92FF920F93BE
:1049B0001F93DF93CF93CDB7DEB72C970FB6F89444
:1049C000DEBF0FBECDBF9C878B878330910508F07B
:1049D0005EC1FC01E65DF94F14913C01660C771C49
:1049E000660C771CC30182519B4F9A83898380E0B8
:1049F00090E0A0E0B0E0E981FA8180839183A28316
:104A0000B3838EEE94E062EF74E046EF54E02AEF59
:104A100034E00E944A47612F772767FD7095882709
:104A200077FD8095982F0E9413721B012C01C30102
:104A30008B589A4F9C838B83D301A05CBA4FBE8363
:104A4000AD83F301EC5CFA4FF887EF836D917D91B4
:104A50008D919C9120813181428153810E94977078
:104A600020E030E040EC5FE30E945174A20191012C
:104A70000E945174AB81BC816D937D938D939C9307
:104A80001397F301EC57FC4FFA87E9876081718136
:104A9000828193816093B5037093B6038093B703CB
:104AA0009093B80320E030E040E752E40E94787130
:104AB0007B018C0185E795E069E775E04DE755E0FE
:104AC00021E835E0ADE1CA2EA5E0DA2E0E94504C77
:104AD0000E94CD5880E090E0A0E0B0E0E981FA814A
:104AE00080839183A283B3838EEE94E062EF74E0BF
:104AF00046EF54E02AEF34E00E944A47F301E35DB9
:104B0000F94F85909590A590B490C501B401905847
:104B1000A20191010E945174AB81BC816D937D9380
:104B20008D939C9313976091B5037091B603809118
:104B3000B7039091B80320E030E040E752E40E94D0
:104B400078717B018C0185E795E069E775E04DE7B9
:104B500055E021E835E00E94504C0E94CD58C50137
:104B6000B401A50194010E949870A20191010E94D4
:104B70005174EB81FC816083718382839383A98567
:104B8000BA856D917D918D919C9120E030E040E05F
:104B90005FE30E9451746093B5037093B6038093F2
:104BA000B7039093B80320E030E040E752E40E945E
:104BB00078717B018C0185E795E069E775E04DE749
:104BC00055E021E835E00E94504C0E94CD58F30199
:104BD000E75CF94F6591759185919491F301E250ED
:104BE000FB4FA080B180C280D380A60195010E94B6
:104BF00098707B018C01CB01D801E981FA81808317
:104C00009183A283B383FAE08F2EF5E09F2E860C6A
:104C1000971CAF81B8856D917D918D919C91A60176
:104C200095010E949870F40160837183828393835D
:104C300082EA93E0680E791EAD81BE816D917D910F
:104C40008D919C91A60195010E949870F30160835B
:104C5000718382839383C701D801EB81FC818083B8
:104C60009183A283B38380E090E0A0E0B0E08093E2
:104C7000B5039093B603A093B703B093B8030E9413
:104C80006058AB85BC85AA5EBA4F81E08C932C96A8
:104C90000FB6F894DEBF0FBECDBFCF91DF911F914D
:104CA0000F91FF90EF90DF90CF90BF90AF909F90CB
:104CB0008F907F906F905F904F903F902F900895CE
:104CC000FC01949108C08091C00085FFFCCF9093B7
:104CD000C600319694919923B1F786EE94E022E0D4
:104CE00030E004CBFC01949108C08091C00085FFA6
:104CF000FCCF9093C600319694919923B1F786EE3C
:104D000094E022E030E0F2CAFC01949108C0809166
:104D1000C00085FFFCCF9093C600319694919923F3
:104D2000B1F786EE94E02AE030E096C94091900514
:104D30005091910520E630E0B901469F9001479FD0
:104D4000300D569F300D1124682F772767FD709521
:104D5000C9018E569A4F0E94F20D9C0190938F05C7
:104D600080938E0580E0232B09F081E008958091E7
:104D70008E0590918F05019660E070E04AE050E06A
:104D80000C94910C80918E0590918F05019660E0B6
:104D900070E00C94340BCF93DF93EC0180911D05F0
:104DA0008093540584E5C2DF882309F480C0EADFDC
:104DB0000E94E571262F60935405662309F477C09D
:104DC000E7EBF3E0949108C08091C00085FFFCCF31
:104DD0009093C600319694919923B1F7CD36D105C1
:104DE000C1F0CE36D10544F4C836D105C1F0C9367C
:104DF000D10509F04DC010C0CA3DD10539F0CD3DF7
:104E0000D10509F045C0EBE0F2E03FC0E2E2F2E09C
:104E100031C0E9E3F2E023C0E0E5F2E015C0E7E6E7
:104E2000F2E007C08091C00085FFFCCF31969093DF
:104E3000C60090819923B1F72BC08091C00085FFF7
:104E4000FCCF31969093C60090819923B1F720C092
:104E50008091C00085FFFCCF31969093C600908171
:104E60009923B1F715C08091C00085FFFCCF319622
:104E70009093C60090819923B1F70AC08091C00039
:104E800085FFFCCF31969093C60090819923B1F7AE
:104E900086EE94E0622F40E050E0E9D88091C000B7
:104EA00085FFFCCF8AE08093C60081E001C080E0EE
:104EB000DF91CF910895AF92BF92CF92DF92EF92A0
:104EC000FF920F931F93CF93DF931EEEE12E14E01A
:104ED000F12EC5E7D5E000E010E0F801EB5EFB4FF6
:104EE000808124DF882331F14DDF5B016C01F80103
:104EF000E951FB4F8081882311F061E002C060918D
:104F0000850570E0882777FD8095982F0E941372A1
:104F1000F70120813181428153810E9451749B01AC
:104F2000AC01C601B5010E949870688379838A83B9
:104F30009B8309C0F70180819181A281B38188831D
:104F40009983AA83BB830F5F1F4F84E090E0E80E34
:104F5000F91E24960430110509F0BFCF86E4E6DE81
:104F60008823D9F00FDF7B018C0160938605709355
:104F70008705809388059093890520E030E040E024
:104F800050E00E947F73181644F4E092B503F0924B
:104F9000B6030093B7031093B803DF91CF911F912D
:104FA0000F91FF90EF90DF90CF90BF90AF9008955A
:104FB00082DF89E4BBDE882351F0E4DE609369057B
:104FC00070936A0580936B0590936C050CC080E02C
:104FD00090E0A0E0B0E08093690590936A05A0930B
:104FE0006B05B0936C058AE4A1DE882351F0CADE1C
:104FF00060936D0570936E0580936F0590937005B7
:10500000089580E090E0A0E0B0E080936D0590937B
:105010006E05A0936F05B093700508959F92AF92AF
:10502000BF92CF92DF92EF92FF920F931F93CF9395
:10503000DF9380E6C82ED12CE5E4F6E0B4900AE0D8
:10504000A02E992493940BC22D3071F02A3321F4B1
:1050500080911307882341F08091140790911507E0
:105060008F3591050CF4D7C1E0911407F091150725
:10507000309719F4109213072BC2A0911607B09124
:105080001707AC9D8001AD9D100DBC9D100D112426
:10509000E00FF11FEE56FA4F10828091130788231C
:1050A00009F0B4C110921307A85EB84F1C92E80132
:1050B000CE56DA4FCE016EE470E00E94F20D9C01F4
:1050C000009709F4F6C090938F0580938E052F5FAB
:1050D0003F4F2C1B3D0B200F311FC9018E569A4F9D
:1050E00060E070E04AE050E00E94910C60931C0781
:1050F00070931D0780931E0790931F07E09055053E
:10510000F09056050091570510915805A801970198
:105110002F5F3F4F4F4F5F4F62177307840795070D
:1051200009F4BCC180911607909117079C012C9D32
:10513000C0012D9D900D3C9D900D11248E569A4FCF
:1051400061E677E00E94D80D892B09F0A7C1E0EB5A
:10515000F3E0949108C08091C00085FFFCCF90934C
:10516000C600319694919923B1F7EEE2F7E094915D
:1051700008C08091C00085FFFCCF9093C600319697
:1051800094919923B1F786EE94E0B801A7012AE043
:1051900030E00E9448208091C00085FFFCCF73C0A2
:1051A0001E274F5FFC01E40FF11DEE56FA4FE08120
:1051B000EA32B1F730938F0520938E05C90101962D
:1051C00060E070E00E94340B0E94E071212F30E01B
:1051D0002617370709F45CC0E0EBF3E0949108C0B0
:1051E0008091C00085FFFCCF9093C60031969491CA
:1051F0009923B1F7EFE0F7E0949108C08091C000E7
:1052000085FFFCCF9093C600319694919923B1F716
:10521000409155055091560560915705709158057C
:1052200086EE94E02AE030E00E9448208091C000A1
:1052300085FFFCCF28C0E0EBF3E0949108C080919B
:10524000C00085FFFCCF9093C600319694919923BE
:10525000B1F7E5EEF6E0949108C08091C00085FFBB
:10526000FCCF9093C600319694919923B1F786EEC6
:1052700094E0B801A7012AE030E00E944820809124
:10528000C00085FFFCCF8AE08093C60058DB4AC08F
:1052900080911C0790911D07A0911E07B0911F07D8
:1052A0008093550590935605A0935705B0935805E4
:1052B0003EC0CE016AE270E00E94F20D009709F450
:1052C00036C0E0EBF3E0949108C08091C00085FF08
:1052D000FCCF9093C600319694919923B1F7EBEBF4
:1052E000F6E0949108C08091C00085FFFCCF9093B8
:1052F000C600319694919923B1F74091550550918C
:105300005605609157057091580586EE94E02AE0A5
:1053100030E00E9448208091C00085FFFCCF8AE0E9
:105320008093C6001092150710921407D1C0809187
:105330001607909117078C9D80018D9D100D9C9DE7
:10534000100D1124E801CE56DA4FCE0167E470E06B
:105350000E94F20D9C01009771F190938F0580934C
:105360008E052F5F3F4F2C1B3D0B200F311FC901B6
:105370008E569A4F60E070E00E94340B0E94E071FC
:1053800064307105C0F4809129058823A1F09B2D1C
:10539000E5E4F6E008C08091C00085FFFCCF909363
:1053A000C600319694919923B1F78091C00085FF92
:1053B000FCCFA092C60080911607909117079C0120
:1053C0002C9DC0012D9D900D3C9D900D11248E565D
:1053D0009A4F6EE772E00E94FD0D009709F4C3D862
:1053E0008091160790911707019664E070E00E9483
:1053F0005675909317078093160780915D059091DD
:105400005E05019690935E0580935D0510921507E9
:105410001092140724C02B3311F49092130780913B
:1054200013078823E1F42091140730911507809128
:105430001607909117078C9DF0018D9DF00D9C9D96
:10544000F00D1124E20FF31FEE56FA4F8091120770
:1054500080832F5F3F4F309315072093140780916F
:10546000E2049091E3042091E4043091E504821B6E
:10547000930B8F779070892B59F180915D059091F6
:105480005E0504972CF586EE94E00E946C1F282F91
:10549000809312078A3009F0D7CDE6CD80911607A8
:1054A000909117078C9DE0018D9DD00D9C9DD00D96
:1054B0001124CE018E569A4F6AE270E00E94F20DDE
:1054C0009C01009709F4B7CE10E040E0CE016ACE0F
:1054D000DF91CF911F910F91FF90EF90DF90CF90D0
:1054E000BF90AF909F900895DF92EF92FF920F933D
:1054F0001F93D82E80915D0590915E0503970CF463
:105500008DDD0E94CE6DE0906305F0906405009102
:1055100065051091660520915F0530916005409109
:10552000610550916205621B730B840B950BE616A7
:10553000F7060807190730F4E114F1040105110515
:1055400009F011D88091B1039091B203A091B303F7
:10555000B091B4030097A105B105A1F10E94CE6DF1
:1055600020915F0530916005409161055091620581
:10557000621B730B840B950B2091B1033091B20326
:105580004091B3035091B4032617370748075907D2
:10559000C8F49091640C8091650C981799F4DD2003
:1055A00089F45F9A109216058A9A109217059FB790
:1055B000F894809108018160809308019FBF109248
:1055C0001805129A8091670590916805909902C01C
:1055D000019604C0181619062CF4019790936805DB
:1055E0008093670580916705909168058051974287
:1055F00014F00E94B3220E946F491F910F91FF90F7
:10560000EF90DF900895DF93CF930F920F92CDB775
:10561000DEB79898A09A269A2E9886EE94E040E0FD
:1056200052EC61E070E00E94341FEFE3F8E09491E7
:1056300008C08091C00085FFFCCF9093C6003196D2
:1056400094919923B1F78091C00085FFFCCF8AE047
:105650008093C60047EB53E0FA01949108C0809113
:10566000C00085FFFCCF9093C6003196949199239A
:10567000B1F784B7282F80FF15C0E7E3F8E09491D5
:1056800008C08091C00085FFFCCF9093C600319682
:1056900094919923B1F78091C00085FFFCCF8AE0F7
:1056A0008093C60021FF15C0E7E2F8E0949108C09E
:1056B0008091C00085FFFCCF9093C60031969491F5
:1056C0009923B1F78091C00085FFFCCF8AE08093D9
:1056D000C60022FF15C0E6E1F8E0949108C0809171
:1056E000C00085FFFCCF9093C6003196949199231A
:1056F000B1F78091C00085FFFCCF8AE08093C6009F
:1057000023FF15C0E6E0F8E0949108C08091C00046
:1057100085FFFCCF9093C600319694919923B1F701
:105720008091C00085FFFCCF8AE08093C60025FFF2
:1057300015C0E6EFF7E0949108C08091C00085FFA6
:10574000FCCF9093C600319694919923B1F7809144
:10575000C00085FFFCCF8AE08093C60014BEEFEE48
:10576000F7E0949108C08091C00085FFFCCF909332
:10577000C600319694919923B1F7EBEEF7E094913E
:1057800008C08091C00085FFFCCF9093C600319681
:1057900094919923B1F78091C00085FFFCCF8AE0F6
:1057A0008093C600FA019491E7EBF3E008C0809182
:1057B000C00085FFFCCF9093C60031969491992349
:1057C000B1F7EBEDF7E0949108C08091C00085FF40
:1057D000FCCF9093C600319694919923B1F7E6ECF3
:1057E000F7E0949108C08091C00085FFFCCF9093B2
:1057F000C600319694919923B1F7EAEBF7E09491C2
:1058000008C08091C00085FFFCCF9093C600319600
:1058100094919923B1F7E3EAF7E0949108C080915D
:10582000C00085FFFCCF9093C600319694919923D8
:10583000B1F78091C00085FFFCCF8AE08093C6005D
:10584000E8E9F7E0949108C08091C00085FFFCCFA3
:105850009093C600319694919923B1F7ECE8F7E064
:10586000949108C08091C00085FFFCCF9093C60042
:10587000319694919923B1F78091C00085FFFCCFB8
:105880008AE08093C600FA019491E7EBF3E008C048
:105890008091C00085FFFCCF9093C6003196949113
:1058A0009923B1F7EDE7F7E0949108C08091C0002B
:1058B00085FFFCCF9093C600319694919923B1F760
:1058C0002091E20D3091E30DCE01019621153105B5
:1058D00019F4885E9D4002C0821B930B9A838983D2
:1058E00069817A8186EE94E04AE050E00E947B2054
:1058F000E6E6F7E0949108C08091C00085FFFCCFF8
:105900009093C600319694919923B1F786EE94E076
:1059100060ED74E04AE050E00E947B208091C0007E
:1059200085FFFCCF8AE08093C60010921807109282
:10593000190710921A0710921B070E94B71C80913A
:10594000340590913505A0913605B09137058093C7
:105950000A0590930B05A0930C05B0930D0580915B
:10596000400590914105A0914205B0914305809377
:10597000A2039093A303A093A403B093A5038091E3
:10598000380590913905A0913A05B0913B05809377
:105990000E0590930F05A0931005B093110580910B
:1059A000440590914505A0914605B0914705809327
:1059B000A6039093A703A093A803B093A903809193
:1059C0003C0590913D05A0913E05B0913F05809327
:1059D000120590931305A0931405B09315058091BB
:1059E000480590914905A0914A05B0914B058093D7
:1059F000AA039093AB03A093AC03B093AD030E94B2
:105A000034640E9493490E94ED5880E197E220E9B6
:105A100031E0F9013197F1F70197D9F70F900F9025
:105A2000CF91DF910895BC0180915D0590915E0555
:105A300004970CF070C0209116073091170780E68C
:105A400090E0AC01249FC001259F900D349F900DE4
:105A500011248E569A4F0E94060EE7EBF3E09491C4
:105A600008C08091C00085FFFCCF9093C60031969E
:105A700094919923B1F7E4E5F8E0949108C08091FE
:105A8000C00085FFFCCF9093C60031969491992376
:105A9000B1F7209116073091170780E690E0289F14
:105AA000F001299FF00D389FF00D1124EE56FA4FAA
:105AB00007C08091C00085FFFCCF31969093C6004F
:105AC00090819923B1F7E2E5F8E0949108C08091C4
:105AD000C00085FFFCCF9093C60031969491992326
